:0300000002066E87
:0C066E00787FE4F6D8FD7581070206B520
:100AE7002D003A006E6F726D616C0052005000630A
:0E0AF70068616E67650020202020002020002E
:100A500041000C064100051641000615410008043E
:0D0A60004100041E4100090042000207E6AB
:1006FA00120B6B120B577BFF7A0A79E77D057F0194
:10070A001209F77BFF7A0A79E77D087F011209F758
:10071A007BFF7A0A79E97D037F021209F77BFF7A68
:10072A000A79E97D067F021209F71205DD1209022C
:10073A0090000FEFF0BF011C900009E0FF70090460
:10074A00F0E4900007F0800CEFB40108E49000098F
:10075A00F01203DF900009E014600B0470CF12035B
:0B076A00DF12022E80C712000E80C2BA
:1003DF00900002E0FAA3E0FB9000167404F07D0198
:1003EF007F01120B2290000CE0FB7A009000167434
:1003FF0002F07D067F01120B22900005E0FB7A00D0
:10040F009000167402F07D097F01120B22900006F6
:10041F00E0FB7A009000167402F07D01FF120B22B0
:10042F00900008E0FB7A009000167402F07D04FF44
:10043F00120B22900004E0FB7A009000167402F079
:10044F007D07FF120B227BFF7A0A79EB7D0B7F0270
:10045F001209F7900002E0FEA3E0FF5403700AFCBC
:10046F007D64120588ED4C7013900002E0FEA3E04E
:10047F00FF7C017D90120588ED4C70087BFF7A0A96
:10048F0079F280067BFF7A0A79F47D107F011209D9
:02049F00F72242
:10000E007BFF7A0A79F67D0B7F021209F790000FBB
:10001E00E0FFB4020E900007E004F0E075F00684F5
:10002E00E5F0F0EF6403705F900007E014602014B9
:10003E00602C14602E1460391460462405704890AC
:10004E000003E004F07040900002E004F08038906D
:10005E00000CE004F0E0640D702D04F08029900097
:10006E00058021900006E004F0E0B4181AE4F08058
:10007E0016900008E004F0E0D3943B400AE4F080D0
:10008E0006900004E004F090000FE06404706B90A2
:10009E000007E014602014602B14603614604414C2
:1000AE00605224057054900003E024FFF09000028B
:1000BE00E034FFF0804490000CE014F0E0703B74EC
:1000CE000CF08036900005E014F0E0702D741CF0FA
:1000DE008028900006E014F0E0D39418401C7417AA
:1000EE00F08017900008E014F0E0D3943C400B74BD
:1000FE003BF08006900004E014F0900007E07016CC
:10010E0090000DE0B4010F7BFF7A0A79FD7D017F2F
:10011E00011209F78015900002E0FAA3E0FB9000AF
:10012E00167404F07D017F01120B22900007E0B4DB
:10013E00011690000DE0B4010F7BFF7A0B79027D62
:10014E00067F011209F7801490000CE0FB7A0090F4
:10015E0000167402F07D067F01120B22900007E05C
:10016E00B4021690000DE0B4010F7BFF7A0B7902FA
:10017E007D097F011209F78014900005E0FB7A00DB
:10018E009000167402F07D097F01120B2290000779
:10019E00E0B4031690000DE0B4010F7BFF7A0B79EB
:1001AE00027D017F021209F78013900006E0FB7AB0
:1001BE00009000167402F07D01FF120B22900007D2
:1001CE00E0B4041690000DE0B4010F7BFF7A0B79BA
:1001DE00027D047F021209F78013900008E0FB7A7B
:1001EE00009000167402F07D04FF120B229000079F
:1001FE00E0B4051690000DE0B4010F7BFF7A0B7989
:10020E00027D077F021209F78013900004E0FB7A4B
:10021E00009000167402F07D07FF120B220204A15B
:1005DD00E4FF12097F90000AEFF07F057E00120BF9
:1005ED00427F0112097F90000BEFF07F057E001214
:1005FD000B427F0212097F90000CEFF07F057E0009
:10060D00120B427F0312097F900005EFF07F057EEC
:10061D0000120B427F0412097F900006EFF07F0558
:10062D007E00120B427F0512097F900008EFF07FCC
:10063D00057E00120B427F0612097F900004EFF039
:10064D007F057E00120B4290000AE075F064A4FF56
:10065D00A3E07C002FFEEC35F0900002F0A3CEF06D
:01066D00226A
:1004A100900002E0FAA3E0FB7C007D64FFAE021243
:1004B100058890000BEDF07C007D64AF03AE021265
:1004C100058890000AEFF0FD7C00E4FF120A247F0A
:1004D100057E00120B4290000BE0FD7C007F0112B3
:1004E1000A247F057E00120B4290000CE0FD7C0087
:1004F1007F02120A247F057E00120B42900005E064
:10050100FD7C007F03120A247F057E00120B4290BE
:100511000006E0FD7C007F04120A247F057E0012A4
:100521000B42900008E0FD7C007F05120A247F0544
:100531007E00120B42900004E0FD7C007F06120A4F
:08054100247F057E00020B423D
:03000B0002077574
:10077500C0E0C0F0C083C082C0D075D000C000C04A
:0D07850001C002C003C004C005C006C007CB
:10079200758CFC758A17900001E004F070069000D9
:1007A20000E004F0C3900001E094E8900000E094BF
:1007B20003401EE4F0A3F090000DE070047F01807E
:1007C200027F0090000DEFF0900004E004F01202AE
:0107D2002EF8
:1007D300D007D006D005D004D003D002D001D0007A
:0B07E300D0D0D082D083D0F0D0E03224
:10022E00900004E0C3943C400B900008E004F0E41E
:10023E00900004F0900008E0C3943C400B90000640
:10024E00E004F0E4900008F0900006E0C39418403B
:10025E0008E4F0900005E004F0E4900010F0A3F044
:10026E00900002E0FEA3E0FF5403700AFC7D6412CE
:10027E000588ED4C7013900002E0FEA3E0FF7C01B8
:10028E007D90120588ED4C7008900010E4F0A304E8
:10029E00F0900010E0FEA3E0FF64014E707190003C
:1002AE0005E0FDD3941D400990000CE0B4020280DD
:1002BE0056EDD3941E401D90000CE0FD6404600EBC
:1002CE00ED64066009ED64096004EDB40B06900060
:1002DE000CE08033900005E0D3941F403290000C68
:1002EE00E0FD6401601DED64036018ED64056013AC
:1002FE00ED6407600EED64086009ED640A6004EDBC
:10030E00B40C0C90000CE004F09000057401F0EFBA
:10031E0064014E6071900005E0FFD3941C4009907B
:10032E00000CE0B402028056EFD3941F402C9000D4
:10033E000CE0FF6401601DEF64036018EF6405605C
:10034E0013EF6407600EEF64086009EF640A60043F
:10035E00EFB40C0690000CE08024900005E0D394DE
:10036E001E402390000CE0FF6404600EEF640660F4
:10037E0009EF64096004EFB40B0C90000CE004F07C
:10038E009000057401F090000CE0FFD3940C401A1D
:10039E00EFD394004014900003E004F07006900038
:1003AE0002E004F090000C7401F0D3900003E0948E
:1003BE000F900002E094274004E4F0A3F0E49000D4
:1003CE000CF0900005F0A3F0900008F0900004F0FF
:0103DE0022FC
:100A2400900012EFF0A3EDF0120BAE7FA0120A7B40
:100A3400120B8E900012E0FF120A7B120B8E9000B4
:0C0A440013E0FF120A7B120B8E020BB7AE
:05097F00900012EFF0F2
:10098400120BAE7FA0120A7B120B8E900012E0FFB6
:10099400120A7B120B8E120BAE7FA1120A7B120B72
:1009A4008E120AC8900013EFF07F01120B9A120BFB
:0609B400B7900013E0FF04
:0109BA00221A
:0D0A6D004A001D3F065B4F666D7D077F6FE1
:1007EE00EF14B40800505490080375F003A4C583A9
:1007FE0025F0C5837302081B02081F020823020896
:10080E002702082B02083302083B020843D2A480B9
:10081E000ED2A48012D2A48016D2A4801AC2A4D260
:10082E00A3D2A28016C2A4D2A3C2A2800EC2A4C218
:10083E00A3D2A28006C2A4C2A3C2A2741D2DF582A9
:10084E0074003CF583E0F5807F017E00120B42E4DC
:03085E00F5802200
:040B3E007F147E00A2
:100B4200EF1FAC0670011E4C600A7D027CEFDCFEDA
:040B5200DDFC80EC5A
:010B5600227C
:10090200E4FB20B10E7F14FE120B4230B1FD120B3C
:100912003E7B0120B00B120B3E30B0FD120B3E7B32
:100922000220B20B120B3E30B2FD120B3E7B0320B3
:0F093200B30B120B3E30B3FD120B3E7B04AF0331
:010941002293
:100B5700758901C28DD28C758CFC758A17D2A9D282
:040B6700AFC2B9223E
:090BAE00D2A0D2A1C2A0C2A12272
:070BB700C2A0D2A1D2A022CE
:020A7B00AD07C5
:100A7D00E4FB74807E00A803088006CEA2E713CEA7
:100A8D0013D8F8FFEDF582EF558224FF92A0D2A185
:070A9D00C2A10BEBB408DB62
:010AA400222F
:100AC800E4FFD2A0FED2A130A00D7480A806088051
:0E0AD80002C313D8FC4FFFC2A10EEEB408E714
:010AE60022ED
:0A0B9A00EF24FF92A0D2A1C2A12215
:0B0B8E00D2A0D2A1A2A0E433FFC2A1BC
:010B99002239
:060B7F00C2A58F80D2A781
:080B85007F027EEFDEFEDFFCC3
:010B8D002245
:0A0BA400C2A6120B7FC2A7020B8548
:100AA500E0FCA3E0FDCFCDCFCECCCE1205887C00F7
:090AB5007D0A120588ED2430FFD2
:0A0ABE00D2A6120B7FC2A7020B851F
:050B0500EAF0A3EBF093
:100B0A00AE07EEB40104ED148007EEB40209ED2439
:080B1A003F4480FF120BA422EE
:100B6B007F38120BA47F0C120BA47F06120BA47FF1
:040B7B0001020BA4C4
:08000300120B0AAF03020ABE52
:0B09F700900012EBF0A3EAF0A3E9F07F
:100A0200120B0AE4FD900012E0FBA3E0FAA3E0F966
:100A12008D82758300120549FF6006120ABE0D80A1
:010A2200E4EF
:010A230022B0
:0C0861007F0AEA24FFFDE434FFFC7E0067
:0E086D00900017EEF0A3EFF0A3ECF0A3EDF077
:10087B00A3E4F0A304F0E4FBEBFFD390001AE09F9A
:10088B007480F8900019E0648098401E90001BE083
:10089B00FEA3E0FF900017E0FCA3E0FD12057690AD
:1008AB00001BEEF0A3EFF00B80CE90001BE0FEA33D
:0208BB00E0FF5C
:0108BD002218
:030B22009000142C
:100B2500120B05A3E0FAEAD39400400C1208619079
:080B35000014120AA51A80EE5B
:010B3D002295
:1008BE00120B0AC3EA64809480400F7F2B120ABE8B
:1008CE0090002CEAF0A3EBF080127F2D120ABEC32B
:1008DE00E49BFEE49A90002CF0A3CEF090002BE067
:1008EE00FAEAD39400400C12086190002C120AA56B
:0308FE001A80EE6F
:0109010022D3
:03094200900030F2
:10094500120B05A3E0FAEAD39400402D7F1012089C
:1009550063900030E0FCA3E0FDCFCDCFCECCCE122E
:100965000588EF540FFEC3940AEE5004243080022C
:090975002437FF120ABE1A80CDDE
:01097E002256
:0309BB0090003574
:1009BE00120B05A3E0FAEAD39400402CEA24FFFDC3
:1009CE00E434FFFC7F027E0012086D900035E0FCDF
:1009DE00A3E0FDCFCDCFCECCCE120588EF540124AF
:0809EE0030FF120ABE1A80CE90
:0109F60022DE
:10067A000206FAE493A3F8E493A34003F68001F296
:10068A0008DFF48029E493A3F85407240CC8C33381
:10069A00C4540F4420C8834004F456800146F6DF50
:1006AA00E4800B0102040810204080900A50E47E86
:1006BA00019360BCA3FF543F30E509541FFEE49345
:1006CA00A360010ECF54C025E060A840B8E493A30C
:1006DA00FAE493A3F8E493A3C8C582C8CAC583CA37
:1006EA00F0A3C8C582C8CAC583CADFE9DEE780BEEF
:010A7A00007B
:10054900BB010CE58229F582E5833AF583E0225067
:1005590006E92582F8E622BBFE06E92582F8E222B1
:0D056900E58229F582E5833AF583E49322CB
:10057600EF8DF0A4A8F0CF8CF0A428CE8DF0A42E99
:02058600FE2253
:10058800BC000BBE0029EF8DF084FFADF022E4CC57
:10059800F875F008EF2FFFEE33FEEC33FCEE9DEC20
:1005A800984005FCEE9DFE0FD5F0E9E4CEFD22ED66
:1005B800F8F5F0EE8420D21CFEADF075F008EF2FB0
:1005C800FFED33FD4007985006D5F0F222C398FDA1
:0505D8000FD5F0EA223E
:00000001FF
